{
  "_format": "hh-sol-artifact-1",
  "contractName": "Fraction",
  "sourceName": "contracts/Fraction.sol",
  "abi": [
    {
      "inputs": [
        {
          "internalType": "address payable",
          "name": "_nftVaultContract",
          "type": "address"
        }
      ],
      "stateMutability": "nonpayable",
      "type": "constructor"
    },
    {
      "inputs": [],
      "name": "MAX_FRACTION_COUNT",
      "outputs": [
        {
          "internalType": "uint256",
          "name": "",
          "type": "uint256"
        }
      ],
      "stateMutability": "view",
      "type": "function"
    },
    {
      "inputs": [],
      "name": "destroy",
      "outputs": [],
      "stateMutability": "nonpayable",
      "type": "function"
    },
    {
      "inputs": [
        {
          "internalType": "address",
          "name": "_nftContractAddress",
          "type": "address"
        },
        {
          "internalType": "uint256",
          "name": "tokenId",
          "type": "uint256"
        },
        {
          "internalType": "uint256",
          "name": "fractionCount",
          "type": "uint256"
        }
      ],
      "name": "fractionalize",
      "outputs": [],
      "stateMutability": "nonpayable",
      "type": "function"
    },
    {
      "inputs": [],
      "name": "nftVaultContract",
      "outputs": [
        {
          "internalType": "contract NftVault",
          "name": "",
          "type": "address"
        }
      ],
      "stateMutability": "view",
      "type": "function"
    },
    {
      "inputs": [],
      "name": "owner",
      "outputs": [
        {
          "internalType": "address",
          "name": "",
          "type": "address"
        }
      ],
      "stateMutability": "view",
      "type": "function"
    },
    {
      "inputs": [
        {
          "internalType": "address payable",
          "name": "_newnftVaultContract",
          "type": "address"
        }
      ],
      "name": "upgradeNFTContract",
      "outputs": [],
      "stateMutability": "nonpayable",
      "type": "function"
    },
    {
      "stateMutability": "payable",
      "type": "receive"
    }
  ],
  "bytecode": "0x60806040526103e86003553480156200001757600080fd5b50604051620055ca380380620055ca83398181016040528101906200003d91906200012f565b336000806101000a81548173ffffffffffffffffffffffffffffffffffffffff021916908373ffffffffffffffffffffffffffffffffffffffff16021790555080600160006101000a81548173ffffffffffffffffffffffffffffffffffffffff021916908373ffffffffffffffffffffffffffffffffffffffff1602179055505062000161565b600080fd5b600073ffffffffffffffffffffffffffffffffffffffff82169050919050565b6000620000f782620000ca565b9050919050565b6200010981620000ea565b81146200011557600080fd5b50565b6000815190506200012981620000fe565b92915050565b600060208284031215620001485762000147620000c5565b5b6000620001588482850162000118565b91505092915050565b61545980620001716000396000f3fe608060405260043610620000615760003560e01c806383197ef0146200006e5780638da5cb5b1462000088578063a196710914620000b8578063bfa2714114620000e8578063ccb7dc461462000118578063cfca483b14620001465762000069565b366200006957005b600080fd5b3480156200007b57600080fd5b506200008662000174565b005b3480156200009557600080fd5b50620000a06200023e565b604051620000af919062000cb3565b60405180910390f35b348015620000c557600080fd5b50620000d062000262565b604051620000df919062000d3b565b60405180910390f35b348015620000f557600080fd5b506200010062000288565b6040516200010f919062000d73565b60405180910390f35b3480156200012557600080fd5b506200014460048036038101906200013e919062000de9565b6200028e565b005b3480156200015357600080fd5b506200017260048036038101906200016c919062000e7d565b62000363565b005b60008054906101000a900473ffffffffffffffffffffffffffffffffffffffff1673ffffffffffffffffffffffffffffffffffffffff163373ffffffffffffffffffffffffffffffffffffffff161462000205576040517f08c379a0000000000000000000000000000000000000000000000000000000008152600401620001fc9062000f3a565b60405180910390fd5b60008054906101000a900473ffffffffffffffffffffffffffffffffffffffff1673ffffffffffffffffffffffffffffffffffffffff16ff5b60008054906101000a900473ffffffffffffffffffffffffffffffffffffffff1681565b600160009054906101000a900473ffffffffffffffffffffffffffffffffffffffff1681565b60035481565b60008054906101000a900473ffffffffffffffffffffffffffffffffffffffff1673ffffffffffffffffffffffffffffffffffffffff163373ffffffffffffffffffffffffffffffffffffffff16146200031f576040517f08c379a0000000000000000000000000000000000000000000000000000000008152600401620003169062000f3a565b60405180910390fd5b80600160006101000a81548173ffffffffffffffffffffffffffffffffffffffff021916908373ffffffffffffffffffffffffffffffffffffffff16021790555050565b60008390506003548211156040518060400160405280601781526020017f4d6178206672616374696f6e7320616c6c6f7765643a20000000000000000000815250620003b160035462000ae6565b604051602001620003c492919062000fdf565b6040516020818303038152906040529062000417576040517f08c379a00000000000000000000000000000000000000000000000000000000081526004016200040e919062001064565b60405180910390fd5b503073ffffffffffffffffffffffffffffffffffffffff168173ffffffffffffffffffffffffffffffffffffffff1663081812fc856040518263ffffffff1660e01b81526004016200046a919062000d73565b60206040518083038186803b1580156200048357600080fd5b505afa15801562000498573d6000803e3d6000fd5b505050506040513d601f19601f82011682018060405250810190620004be91906200109f565b73ffffffffffffffffffffffffffffffffffffffff161462000517576040517f08c379a00000000000000000000000000000000000000000000000000000000081526004016200050e9062001121565b60405180910390fd5b8073ffffffffffffffffffffffffffffffffffffffff166323b872dd33600160009054906101000a900473ffffffffffffffffffffffffffffffffffffffff16866040518463ffffffff1660e01b8152600401620005789392919062001143565b600060405180830381600087803b1580156200059357600080fd5b505af1158015620005a8573d6000803e3d6000fd5b5050505060008173ffffffffffffffffffffffffffffffffffffffff166395d89b416040518163ffffffff1660e01b815260040160006040518083038186803b158015620005f557600080fd5b505afa1580156200060a573d6000803e3d6000fd5b505050506040513d6000823e3d601f19601f82011682018060405250810190620006359190620012c2565b6040518060400160405280600581526020017f2d46584e2d000000000000000000000000000000000000000000000000000000815250620006768662000ae6565b6040516020016200068a9392919062001313565b604051602081830303815290604052905060008273ffffffffffffffffffffffffffffffffffffffff166306fdde036040518163ffffffff1660e01b815260040160006040518083038186803b158015620006e457600080fd5b505afa158015620006f9573d6000803e3d6000fd5b505050506040513d6000823e3d601f19601f82011682018060405250810190620007249190620012c2565b6040518060400160405280600d81526020017f4672616374696e616c69736564000000000000000000000000000000000000008152506040516020016200076d92919062000fdf565b604051602081830303815290604052905060008073ffffffffffffffffffffffffffffffffffffffff16600260008973ffffffffffffffffffffffffffffffffffffffff1673ffffffffffffffffffffffffffffffffffffffff16815260200190815260200160002060009054906101000a900473ffffffffffffffffffffffffffffffffffffffff1673ffffffffffffffffffffffffffffffffffffffff16141562000972576000868573ffffffffffffffffffffffffffffffffffffffff1663c87b56dd896040518263ffffffff1660e01b815260040162000852919062000d73565b60006040518083038186803b1580156200086b57600080fd5b505afa15801562000880573d6000803e3d6000fd5b505050506040513d6000823e3d601f19601f82011682018060405250810190620008ab9190620012c2565b8733604051620008bb9062000c60565b620008ca94939291906200134a565b604051809103906000f080158015620008e7573d6000803e3d6000fd5b50905080600260008a73ffffffffffffffffffffffffffffffffffffffff1673ffffffffffffffffffffffffffffffffffffffff16815260200190815260200160002060006101000a81548173ffffffffffffffffffffffffffffffffffffffff021916908373ffffffffffffffffffffffffffffffffffffffff1602179055508091505062000add565b600260008873ffffffffffffffffffffffffffffffffffffffff1673ffffffffffffffffffffffffffffffffffffffff16815260200190815260200160002060009054906101000a900473ffffffffffffffffffffffffffffffffffffffff1690508073ffffffffffffffffffffffffffffffffffffffff16631d079317878673ffffffffffffffffffffffffffffffffffffffff1663c87b56dd8a6040518263ffffffff1660e01b815260040162000a2c919062000d73565b60006040518083038186803b15801562000a4557600080fd5b505afa15801562000a5a573d6000803e3d6000fd5b505050506040513d6000823e3d601f19601f8201168201806040525081019062000a859190620012c2565b88336040518563ffffffff1660e01b815260040162000aa894939291906200134a565b600060405180830381600087803b15801562000ac357600080fd5b505af115801562000ad8573d6000803e3d6000fd5b505050505b50505050505050565b6060600082141562000b30576040518060400160405280600181526020017f3000000000000000000000000000000000000000000000000000000000000000815250905062000c5b565b600082905060005b6000821462000b6857808062000b4e90620013cd565b915050600a8262000b6091906200144a565b915062000b38565b60008167ffffffffffffffff81111562000b875762000b866200118a565b5b6040519080825280601f01601f19166020018201604052801562000bba5781602001600182028036833780820191505090505b5090505b6000851462000c545760018262000bd6919062001482565b9150600a8562000be79190620014bd565b603062000bf59190620014f5565b60f81b81838151811062000c0e5762000c0d62001552565b5b60200101907effffffffffffffffffffffffffffffffffffffffffffffffffffffffffffff1916908160001a905350600a8562000c4c91906200144a565b945062000bbe565b8093505050505b919050565b613ea2806200158283390190565b600073ffffffffffffffffffffffffffffffffffffffff82169050919050565b600062000c9b8262000c6e565b9050919050565b62000cad8162000c8e565b82525050565b600060208201905062000cca600083018462000ca2565b92915050565b6000819050919050565b600062000cfb62000cf562000cef8462000c6e565b62000cd0565b62000c6e565b9050919050565b600062000d0f8262000cda565b9050919050565b600062000d238262000d02565b9050919050565b62000d358162000d16565b82525050565b600060208201905062000d52600083018462000d2a565b92915050565b6000819050919050565b62000d6d8162000d58565b82525050565b600060208201905062000d8a600083018462000d62565b92915050565b6000604051905090565b600080fd5b600080fd5b600062000db18262000c6e565b9050919050565b62000dc38162000da4565b811462000dcf57600080fd5b50565b60008135905062000de38162000db8565b92915050565b60006020828403121562000e025762000e0162000d9a565b5b600062000e128482850162000dd2565b91505092915050565b62000e268162000c8e565b811462000e3257600080fd5b50565b60008135905062000e468162000e1b565b92915050565b62000e578162000d58565b811462000e6357600080fd5b50565b60008135905062000e778162000e4c565b92915050565b60008060006060848603121562000e995762000e9862000d9a565b5b600062000ea98682870162000e35565b935050602062000ebc8682870162000e66565b925050604062000ecf8682870162000e66565b9150509250925092565b600082825260208201905092915050565b7f4e6f7420617574686f72697a6564212121000000000000000000000000000000600082015250565b600062000f2260118362000ed9565b915062000f2f8262000eea565b602082019050919050565b6000602082019050818103600083015262000f558162000f13565b9050919050565b600081519050919050565b600081905092915050565b60005b8381101562000f9257808201518184015260208101905062000f75565b8381111562000fa2576000848401525b50505050565b600062000fb58262000f5c565b62000fc1818562000f67565b935062000fd381856020860162000f72565b80840191505092915050565b600062000fed828562000fa8565b915062000ffb828462000fa8565b91508190509392505050565b600081519050919050565b6000601f19601f8301169050919050565b6000620010308262001007565b6200103c818562000ed9565b93506200104e81856020860162000f72565b620010598162001012565b840191505092915050565b6000602082019050818103600083015262001080818462001023565b905092915050565b600081519050620010998162000e1b565b92915050565b600060208284031215620010b857620010b762000d9a565b5b6000620010c88482850162001088565b91505092915050565b7f4e4654206e6f7420617070726f76656420666f72207472616e73666572000000600082015250565b600062001109601d8362000ed9565b91506200111682620010d1565b602082019050919050565b600060208201905081810360008301526200113c81620010fa565b9050919050565b60006060820190506200115a600083018662000ca2565b62001169602083018562000ca2565b62001178604083018462000d62565b949350505050565b600080fd5b600080fd5b7f4e487b7100000000000000000000000000000000000000000000000000000000600052604160045260246000fd5b620011c48262001012565b810181811067ffffffffffffffff82111715620011e657620011e56200118a565b5b80604052505050565b6000620011fb62000d90565b9050620012098282620011b9565b919050565b600067ffffffffffffffff8211156200122c576200122b6200118a565b5b620012378262001012565b9050602081019050919050565b60006200125b62001255846200120e565b620011ef565b9050828152602081018484840111156200127a576200127962001185565b5b6200128784828562000f72565b509392505050565b600082601f830112620012a757620012a662001180565b5b8151620012b984826020860162001244565b91505092915050565b600060208284031215620012db57620012da62000d9a565b5b600082015167ffffffffffffffff811115620012fc57620012fb62000d9f565b5b6200130a848285016200128f565b91505092915050565b600062001321828662000fa8565b91506200132f828562000fa8565b91506200133d828462000fa8565b9150819050949350505050565b600060808201905062001361600083018762000d62565b818103602083015262001375818662001023565b905062001386604083018562000d62565b62001395606083018462000ca2565b95945050505050565b7f4e487b7100000000000000000000000000000000000000000000000000000000600052601160045260246000fd5b6000620013da8262000d58565b91507fffffffffffffffffffffffffffffffffffffffffffffffffffffffffffffffff82141562001410576200140f6200139e565b5b600182019050919050565b7f4e487b7100000000000000000000000000000000000000000000000000000000600052601260045260246000fd5b6000620014578262000d58565b9150620014648362000d58565b9250826200147757620014766200141b565b5b828204905092915050565b60006200148f8262000d58565b91506200149c8362000d58565b925082821015620014b257620014b16200139e565b5b828203905092915050565b6000620014ca8262000d58565b9150620014d78362000d58565b925082620014ea57620014e96200141b565b5b828206905092915050565b6000620015028262000d58565b91506200150f8362000d58565b9250827fffffffffffffffffffffffffffffffffffffffffffffffffffffffffffffffff038211156200154757620015466200139e565b5b828201905092915050565b7f4e487b7100000000000000000000000000000000000000000000000000000000600052603260045260246000fdfe608060405260405180602001604052806000815250600390805190602001906200002b929190620007dd565b503480156200003957600080fd5b5060405162003ea238038062003ea283398181016040528101906200005f919062000aca565b604051806020016040528060008152506200008081620000e660201b60201c565b50620000ca8185846040518060400160405280600181526020017f20000000000000000000000000000000000000000000000000000000000000008152506200010260201b60201c565b620000dc8484620002ea60201b60201c565b5050505062001241565b8060029080519060200190620000fe929190620007dd565b5050565b600073ffffffffffffffffffffffffffffffffffffffff168473ffffffffffffffffffffffffffffffffffffffff16141562000175576040517f08c379a00000000000000000000000000000000000000000000000000000000081526004016200016c9062000be2565b60405180910390fd5b6000620001876200030560201b60201c565b905060006200019c856200030d60201b60201c565b90506000620001b1856200030d60201b60201c565b9050620001ca836000898585896200038e60201b60201c565b8460008088815260200190815260200160002060008973ffffffffffffffffffffffffffffffffffffffff1673ffffffffffffffffffffffffffffffffffffffff16815260200190815260200160002060008282546200022b919062000c33565b925050819055508673ffffffffffffffffffffffffffffffffffffffff16600073ffffffffffffffffffffffffffffffffffffffff168473ffffffffffffffffffffffffffffffffffffffff167fc3d58168c5ae7397731d063d5bbf3d657854427343f4c083240f7aacaa2d0f628989604051620002ab92919062000ca1565b60405180910390a4620002ca836000898585896200039660201b60201c565b620002e1836000898989896200039e60201b60201c565b50505050505050565b620003018282620005a860201b6200080b1760201c565b5050565b600033905090565b60606000600167ffffffffffffffff8111156200032f576200032e620008f7565b5b6040519080825280602002602001820160405280156200035e5781602001602082028036833780820191505090505b509050828160008151811062000379576200037862000cce565b5b60200260200101818152505080915050919050565b505050505050565b505050505050565b620003ca8473ffffffffffffffffffffffffffffffffffffffff166200062060201b620008771760201c565b15620005a0578373ffffffffffffffffffffffffffffffffffffffff1663f23a6e6187878686866040518663ffffffff1660e01b81526004016200041395949392919062000d6b565b602060405180830381600087803b1580156200042e57600080fd5b505af19250505080156200046257506040513d601f19601f820116820180604052508101906200045f919062000e2c565b60015b62000514576200047162000e6b565b806308c379a01415620004d557506200048962000e90565b80620004965750620004d7565b806040517f08c379a0000000000000000000000000000000000000000000000000000000008152600401620004cc919062000f7e565b60405180910390fd5b505b6040517f08c379a00000000000000000000000000000000000000000000000000000000081526004016200050b9062001018565b60405180910390fd5b63f23a6e6160e01b7bffffffffffffffffffffffffffffffffffffffffffffffffffffffff1916817bffffffffffffffffffffffffffffffffffffffffffffffffffffffff1916146200059e576040517f08c379a00000000000000000000000000000000000000000000000000000000081526004016200059590620010b0565b60405180910390fd5b505b505050505050565b80600460008481526020019081526020016000209080519060200190620005d1929190620007dd565b50817f6bb7ff708619ba0610cba295a58592e0451dee2622938c8755667688daf3529b62000605846200064360201b60201c565b60405162000614919062000f7e565b60405180910390a25050565b6000808273ffffffffffffffffffffffffffffffffffffffff163b119050919050565b60606000600460008481526020019081526020016000208054620006679062001101565b80601f0160208091040260200160405190810160405280929190818152602001828054620006959062001101565b8015620006e65780601f10620006ba57610100808354040283529160200191620006e6565b820191906000526020600020905b815481529060010190602001808311620006c857829003601f168201915b50505050509050600081511162000713576200070d836200074160201b6200089a1760201c565b62000739565b6003816040516020016200072992919062001219565b6040516020818303038152906040525b915050919050565b606060028054620007529062001101565b80601f0160208091040260200160405190810160405280929190818152602001828054620007809062001101565b8015620007d15780601f10620007a557610100808354040283529160200191620007d1565b820191906000526020600020905b815481529060010190602001808311620007b357829003601f168201915b50505050509050919050565b828054620007eb9062001101565b90600052602060002090601f0160209004810192826200080f57600085556200085b565b82601f106200082a57805160ff19168380011785556200085b565b828001600101855582156200085b579182015b828111156200085a5782518255916020019190600101906200083d565b5b5090506200086a91906200086e565b5090565b5b80821115620008895760008160009055506001016200086f565b5090565b6000604051905090565b600080fd5b600080fd5b6000819050919050565b620008b681620008a1565b8114620008c257600080fd5b50565b600081519050620008d681620008ab565b92915050565b600080fd5b600080fd5b6000601f19601f8301169050919050565b7f4e487b7100000000000000000000000000000000000000000000000000000000600052604160045260246000fd5b6200093182620008e6565b810181811067ffffffffffffffff82111715620009535762000952620008f7565b5b80604052505050565b6000620009686200088d565b905062000976828262000926565b919050565b600067ffffffffffffffff821115620009995762000998620008f7565b5b620009a482620008e6565b9050602081019050919050565b60005b83811015620009d1578082015181840152602081019050620009b4565b83811115620009e1576000848401525b50505050565b6000620009fe620009f8846200097b565b6200095c565b90508281526020810184848401111562000a1d5762000a1c620008e1565b5b62000a2a848285620009b1565b509392505050565b600082601f83011262000a4a5762000a49620008dc565b5b815162000a5c848260208601620009e7565b91505092915050565b600073ffffffffffffffffffffffffffffffffffffffff82169050919050565b600062000a928262000a65565b9050919050565b62000aa48162000a85565b811462000ab057600080fd5b50565b60008151905062000ac48162000a99565b92915050565b6000806000806080858703121562000ae75762000ae662000897565b5b600062000af787828801620008c5565b945050602085015167ffffffffffffffff81111562000b1b5762000b1a6200089c565b5b62000b298782880162000a32565b935050604062000b3c87828801620008c5565b925050606062000b4f8782880162000ab3565b91505092959194509250565b600082825260208201905092915050565b7f455243313135353a206d696e7420746f20746865207a65726f2061646472657360008201527f7300000000000000000000000000000000000000000000000000000000000000602082015250565b600062000bca60218362000b5b565b915062000bd78262000b6c565b604082019050919050565b6000602082019050818103600083015262000bfd8162000bbb565b9050919050565b7f4e487b7100000000000000000000000000000000000000000000000000000000600052601160045260246000fd5b600062000c4082620008a1565b915062000c4d83620008a1565b9250827fffffffffffffffffffffffffffffffffffffffffffffffffffffffffffffffff0382111562000c855762000c8462000c04565b5b828201905092915050565b62000c9b81620008a1565b82525050565b600060408201905062000cb8600083018562000c90565b62000cc7602083018462000c90565b9392505050565b7f4e487b7100000000000000000000000000000000000000000000000000000000600052603260045260246000fd5b62000d088162000a85565b82525050565b600081519050919050565b600082825260208201905092915050565b600062000d378262000d0e565b62000d43818562000d19565b935062000d55818560208601620009b1565b62000d6081620008e6565b840191505092915050565b600060a08201905062000d82600083018862000cfd565b62000d91602083018762000cfd565b62000da0604083018662000c90565b62000daf606083018562000c90565b818103608083015262000dc3818462000d2a565b90509695505050505050565b60007fffffffff0000000000000000000000000000000000000000000000000000000082169050919050565b62000e068162000dcf565b811462000e1257600080fd5b50565b60008151905062000e268162000dfb565b92915050565b60006020828403121562000e455762000e4462000897565b5b600062000e558482850162000e15565b91505092915050565b60008160e01c9050919050565b600060033d111562000e8d5760046000803e62000e8a60005162000e5e565b90505b90565b600060443d101562000ea25762000f2f565b62000eac6200088d565b60043d036004823e80513d602482011167ffffffffffffffff8211171562000ed657505062000f2f565b808201805167ffffffffffffffff81111562000ef6575050505062000f2f565b80602083010160043d03850181111562000f1557505050505062000f2f565b62000f268260200185018662000926565b82955050505050505b90565b600081519050919050565b600062000f4a8262000f32565b62000f56818562000b5b565b935062000f68818560208601620009b1565b62000f7381620008e6565b840191505092915050565b6000602082019050818103600083015262000f9a818462000f3d565b905092915050565b7f455243313135353a207472616e7366657220746f206e6f6e204552433131353560008201527f526563656976657220696d706c656d656e746572000000000000000000000000602082015250565b60006200100060348362000b5b565b91506200100d8262000fa2565b604082019050919050565b60006020820190508181036000830152620010338162000ff1565b9050919050565b7f455243313135353a204552433131353552656365697665722072656a6563746560008201527f6420746f6b656e73000000000000000000000000000000000000000000000000602082015250565b60006200109860288362000b5b565b9150620010a5826200103a565b604082019050919050565b60006020820190508181036000830152620010cb8162001089565b9050919050565b7f4e487b7100000000000000000000000000000000000000000000000000000000600052602260045260246000fd5b600060028204905060018216806200111a57607f821691505b60208210811415620011315762001130620010d2565b5b50919050565b600081905092915050565b60008190508160005260206000209050919050565b60008154620011668162001101565b62001172818662001137565b94506001821660008114620011905760018114620011a257620011d9565b60ff19831686528186019350620011d9565b620011ad8562001142565b60005b83811015620011d157815481890152600182019150602081019050620011b0565b838801955050505b50505092915050565b6000620011ef8262000f32565b620011fb818562001137565b93506200120d818560208601620009b1565b80840191505092915050565b600062001227828562001157565b9150620012358284620011e2565b91508190509392505050565b612c5180620012516000396000f3fe608060405234801561001057600080fd5b506004361061009d5760003560e01c80634e1273f4116100665780634e1273f41461016a57806383197ef01461019a578063a22cb465146101a4578063e985e9c5146101c0578063f242432a146101f05761009d565b8062fdd58e146100a257806301ffc9a7146100d25780630e89341c146101025780631d079317146101325780632eb2c2d61461014e575b600080fd5b6100bc60048036038101906100b7919061182d565b61020c565b6040516100c9919061187c565b60405180910390f35b6100ec60048036038101906100e791906118ef565b6102d5565b6040516100f99190611937565b60405180910390f35b61011c60048036038101906101179190611952565b6103b7565b6040516101299190611a18565b60405180910390f35b61014c60048036038101906101479190611b6f565b61049c565b005b61016860048036038101906101639190611d5b565b6104ed565b005b610184600480360381019061017f9190611eed565b61058e565b6040516101919190612023565b60405180910390f35b6101a26106a7565b005b6101be60048036038101906101b99190612071565b6106c0565b005b6101da60048036038101906101d591906120b1565b6106d6565b6040516101e79190611937565b60405180910390f35b61020a600480360381019061020591906120f1565b61076a565b005b60008073ffffffffffffffffffffffffffffffffffffffff168373ffffffffffffffffffffffffffffffffffffffff16141561027d576040517f08c379a0000000000000000000000000000000000000000000000000000000008152600401610274906121fa565b60405180910390fd5b60008083815260200190815260200160002060008473ffffffffffffffffffffffffffffffffffffffff1673ffffffffffffffffffffffffffffffffffffffff16815260200190815260200160002054905092915050565b60007fd9b67a26000000000000000000000000000000000000000000000000000000007bffffffffffffffffffffffffffffffffffffffffffffffffffffffff1916827bffffffffffffffffffffffffffffffffffffffffffffffffffffffff191614806103a057507f0e89341c000000000000000000000000000000000000000000000000000000007bffffffffffffffffffffffffffffffffffffffffffffffffffffffff1916827bffffffffffffffffffffffffffffffffffffffffffffffffffffffff1916145b806103b057506103af8261092e565b5b9050919050565b606060006004600084815260200190815260200160002080546103d990612249565b80601f016020809104026020016040519081016040528092919081815260200182805461040590612249565b80156104525780601f1061042757610100808354040283529160200191610452565b820191906000526020600020905b81548152906001019060200180831161043557829003601f168201915b5050505050905060008151116104705761046b8361089a565b610494565b60038160405160200161048492919061234b565b6040516020818303038152906040525b915050919050565b6104dd8185846040518060400160405280600181526020017f2000000000000000000000000000000000000000000000000000000000000000815250610998565b6104e78484610b49565b50505050565b6104f5610b57565b73ffffffffffffffffffffffffffffffffffffffff168573ffffffffffffffffffffffffffffffffffffffff16148061053b575061053a85610535610b57565b6106d6565b5b61057a576040517f08c379a0000000000000000000000000000000000000000000000000000000008152600401610571906123e1565b60405180910390fd5b6105878585858585610b5f565b5050505050565b606081518351146105d4576040517f08c379a00000000000000000000000000000000000000000000000000000000081526004016105cb90612473565b60405180910390fd5b6000835167ffffffffffffffff8111156105f1576105f0611a44565b5b60405190808252806020026020018201604052801561061f5781602001602082028036833780820191505090505b50905060005b845181101561069c5761066c85828151811061064457610643612493565b5b602002602001015185838151811061065f5761065e612493565b5b602002602001015161020c565b82828151811061067f5761067e612493565b5b60200260200101818152505080610695906124f1565b9050610625565b508091505092915050565b3373ffffffffffffffffffffffffffffffffffffffff16ff5b6106d26106cb610b57565b8383610e81565b5050565b6000600160008473ffffffffffffffffffffffffffffffffffffffff1673ffffffffffffffffffffffffffffffffffffffff16815260200190815260200160002060008373ffffffffffffffffffffffffffffffffffffffff1673ffffffffffffffffffffffffffffffffffffffff16815260200190815260200160002060009054906101000a900460ff16905092915050565b610772610b57565b73ffffffffffffffffffffffffffffffffffffffff168573ffffffffffffffffffffffffffffffffffffffff1614806107b857506107b7856107b2610b57565b6106d6565b5b6107f7576040517f08c379a00000000000000000000000000000000000000000000000000000000081526004016107ee906123e1565b60405180910390fd5b6108048585858585610fee565b5050505050565b806004600084815260200190815260200160002090805190602001906108329291906116e2565b50817f6bb7ff708619ba0610cba295a58592e0451dee2622938c8755667688daf3529b61085e846103b7565b60405161086b9190611a18565b60405180910390a25050565b6000808273ffffffffffffffffffffffffffffffffffffffff163b119050919050565b6060600280546108a990612249565b80601f01602080910402602001604051908101604052809291908181526020018280546108d590612249565b80156109225780601f106108f757610100808354040283529160200191610922565b820191906000526020600020905b81548152906001019060200180831161090557829003601f168201915b50505050509050919050565b60007f01ffc9a7000000000000000000000000000000000000000000000000000000007bffffffffffffffffffffffffffffffffffffffffffffffffffffffff1916827bffffffffffffffffffffffffffffffffffffffffffffffffffffffff1916149050919050565b600073ffffffffffffffffffffffffffffffffffffffff168473ffffffffffffffffffffffffffffffffffffffff161415610a08576040517f08c379a00000000000000000000000000000000000000000000000000000000081526004016109ff906125ac565b60405180910390fd5b6000610a12610b57565b90506000610a1f8561128a565b90506000610a2c8561128a565b9050610a3d83600089858589611304565b8460008088815260200190815260200160002060008973ffffffffffffffffffffffffffffffffffffffff1673ffffffffffffffffffffffffffffffffffffffff1681526020019081526020016000206000828254610a9c91906125cc565b925050819055508673ffffffffffffffffffffffffffffffffffffffff16600073ffffffffffffffffffffffffffffffffffffffff168473ffffffffffffffffffffffffffffffffffffffff167fc3d58168c5ae7397731d063d5bbf3d657854427343f4c083240f7aacaa2d0f628989604051610b1a929190612622565b60405180910390a4610b318360008985858961130c565b610b4083600089898989611314565b50505050505050565b610b53828261080b565b5050565b600033905090565b8151835114610ba3576040517f08c379a0000000000000000000000000000000000000000000000000000000008152600401610b9a906126bd565b60405180910390fd5b600073ffffffffffffffffffffffffffffffffffffffff168473ffffffffffffffffffffffffffffffffffffffff161415610c13576040517f08c379a0000000000000000000000000000000000000000000000000000000008152600401610c0a9061274f565b60405180910390fd5b6000610c1d610b57565b9050610c2d818787878787611304565b60005b8451811015610dde576000858281518110610c4e57610c4d612493565b5b602002602001015190506000858381518110610c6d57610c6c612493565b5b60200260200101519050600080600084815260200190815260200160002060008b73ffffffffffffffffffffffffffffffffffffffff1673ffffffffffffffffffffffffffffffffffffffff16815260200190815260200160002054905081811015610d0e576040517f08c379a0000000000000000000000000000000000000000000000000000000008152600401610d05906127e1565b60405180910390fd5b81810360008085815260200190815260200160002060008c73ffffffffffffffffffffffffffffffffffffffff1673ffffffffffffffffffffffffffffffffffffffff168152602001908152602001600020819055508160008085815260200190815260200160002060008b73ffffffffffffffffffffffffffffffffffffffff1673ffffffffffffffffffffffffffffffffffffffff1681526020019081526020016000206000828254610dc391906125cc565b9250508190555050505080610dd7906124f1565b9050610c30565b508473ffffffffffffffffffffffffffffffffffffffff168673ffffffffffffffffffffffffffffffffffffffff168273ffffffffffffffffffffffffffffffffffffffff167f4a39dc06d4c0dbc64b70af90fd698a233a518aa5d07e595d983b8c0526c8f7fb8787604051610e55929190612801565b60405180910390a4610e6b81878787878761130c565b610e798187878787876114fb565b505050505050565b8173ffffffffffffffffffffffffffffffffffffffff168373ffffffffffffffffffffffffffffffffffffffff161415610ef0576040517f08c379a0000000000000000000000000000000000000000000000000000000008152600401610ee7906128aa565b60405180910390fd5b80600160008573ffffffffffffffffffffffffffffffffffffffff1673ffffffffffffffffffffffffffffffffffffffff16815260200190815260200160002060008473ffffffffffffffffffffffffffffffffffffffff1673ffffffffffffffffffffffffffffffffffffffff16815260200190815260200160002060006101000a81548160ff0219169083151502179055508173ffffffffffffffffffffffffffffffffffffffff168373ffffffffffffffffffffffffffffffffffffffff167f17307eab39ab6107e8899845ad3d59bd9653f200f220920489ca2b5937696c3183604051610fe19190611937565b60405180910390a3505050565b600073ffffffffffffffffffffffffffffffffffffffff168473ffffffffffffffffffffffffffffffffffffffff16141561105e576040517f08c379a00000000000000000000000000000000000000000000000000000000081526004016110559061274f565b60405180910390fd5b6000611068610b57565b905060006110758561128a565b905060006110828561128a565b9050611092838989858589611304565b600080600088815260200190815260200160002060008a73ffffffffffffffffffffffffffffffffffffffff1673ffffffffffffffffffffffffffffffffffffffff16815260200190815260200160002054905085811015611129576040517f08c379a0000000000000000000000000000000000000000000000000000000008152600401611120906127e1565b60405180910390fd5b85810360008089815260200190815260200160002060008b73ffffffffffffffffffffffffffffffffffffffff1673ffffffffffffffffffffffffffffffffffffffff168152602001908152602001600020819055508560008089815260200190815260200160002060008a73ffffffffffffffffffffffffffffffffffffffff1673ffffffffffffffffffffffffffffffffffffffff16815260200190815260200160002060008282546111de91906125cc565b925050819055508773ffffffffffffffffffffffffffffffffffffffff168973ffffffffffffffffffffffffffffffffffffffff168573ffffffffffffffffffffffffffffffffffffffff167fc3d58168c5ae7397731d063d5bbf3d657854427343f4c083240f7aacaa2d0f628a8a60405161125b929190612622565b60405180910390a4611271848a8a86868a61130c565b61127f848a8a8a8a8a611314565b505050505050505050565b60606000600167ffffffffffffffff8111156112a9576112a8611a44565b5b6040519080825280602002602001820160405280156112d75781602001602082028036833780820191505090505b50905082816000815181106112ef576112ee612493565b5b60200260200101818152505080915050919050565b505050505050565b505050505050565b6113338473ffffffffffffffffffffffffffffffffffffffff16610877565b156114f3578373ffffffffffffffffffffffffffffffffffffffff1663f23a6e6187878686866040518663ffffffff1660e01b815260040161137995949392919061292e565b602060405180830381600087803b15801561139357600080fd5b505af19250505080156113c457506040513d601f19601f820116820180604052508101906113c1919061299d565b60015b61146a576113d06129d7565b806308c379a0141561142d57506113e56129f9565b806113f0575061142f565b806040517f08c379a00000000000000000000000000000000000000000000000000000000081526004016114249190611a18565b60405180910390fd5b505b6040517f08c379a000000000000000000000000000000000000000000000000000000000815260040161146190612b01565b60405180910390fd5b63f23a6e6160e01b7bffffffffffffffffffffffffffffffffffffffffffffffffffffffff1916817bffffffffffffffffffffffffffffffffffffffffffffffffffffffff1916146114f1576040517f08c379a00000000000000000000000000000000000000000000000000000000081526004016114e890612b93565b60405180910390fd5b505b505050505050565b61151a8473ffffffffffffffffffffffffffffffffffffffff16610877565b156116da578373ffffffffffffffffffffffffffffffffffffffff1663bc197c8187878686866040518663ffffffff1660e01b8152600401611560959493929190612bb3565b602060405180830381600087803b15801561157a57600080fd5b505af19250505080156115ab57506040513d601f19601f820116820180604052508101906115a8919061299d565b60015b611651576115b76129d7565b806308c379a0141561161457506115cc6129f9565b806115d75750611616565b806040517f08c379a000000000000000000000000000000000000000000000000000000000815260040161160b9190611a18565b60405180910390fd5b505b6040517f08c379a000000000000000000000000000000000000000000000000000000000815260040161164890612b01565b60405180910390fd5b63bc197c8160e01b7bffffffffffffffffffffffffffffffffffffffffffffffffffffffff1916817bffffffffffffffffffffffffffffffffffffffffffffffffffffffff1916146116d8576040517f08c379a00000000000000000000000000000000000000000000000000000000081526004016116cf90612b93565b60405180910390fd5b505b505050505050565b8280546116ee90612249565b90600052602060002090601f0160209004810192826117105760008555611757565b82601f1061172957805160ff1916838001178555611757565b82800160010185558215611757579182015b8281111561175657825182559160200191906001019061173b565b5b5090506117649190611768565b5090565b5b80821115611781576000816000905550600101611769565b5090565b6000604051905090565b600080fd5b600080fd5b600073ffffffffffffffffffffffffffffffffffffffff82169050919050565b60006117c482611799565b9050919050565b6117d4816117b9565b81146117df57600080fd5b50565b6000813590506117f1816117cb565b92915050565b6000819050919050565b61180a816117f7565b811461181557600080fd5b50565b60008135905061182781611801565b92915050565b600080604083850312156118445761184361178f565b5b6000611852858286016117e2565b925050602061186385828601611818565b9150509250929050565b611876816117f7565b82525050565b6000602082019050611891600083018461186d565b92915050565b60007fffffffff0000000000000000000000000000000000000000000000000000000082169050919050565b6118cc81611897565b81146118d757600080fd5b50565b6000813590506118e9816118c3565b92915050565b6000602082840312156119055761190461178f565b5b6000611913848285016118da565b91505092915050565b60008115159050919050565b6119318161191c565b82525050565b600060208201905061194c6000830184611928565b92915050565b6000602082840312156119685761196761178f565b5b600061197684828501611818565b91505092915050565b600081519050919050565b600082825260208201905092915050565b60005b838110156119b957808201518184015260208101905061199e565b838111156119c8576000848401525b50505050565b6000601f19601f8301169050919050565b60006119ea8261197f565b6119f4818561198a565b9350611a0481856020860161199b565b611a0d816119ce565b840191505092915050565b60006020820190508181036000830152611a3281846119df565b905092915050565b600080fd5b600080fd5b7f4e487b7100000000000000000000000000000000000000000000000000000000600052604160045260246000fd5b611a7c826119ce565b810181811067ffffffffffffffff82111715611a9b57611a9a611a44565b5b80604052505050565b6000611aae611785565b9050611aba8282611a73565b919050565b600067ffffffffffffffff821115611ada57611ad9611a44565b5b611ae3826119ce565b9050602081019050919050565b82818337600083830152505050565b6000611b12611b0d84611abf565b611aa4565b905082815260208101848484011115611b2e57611b2d611a3f565b5b611b39848285611af0565b509392505050565b600082601f830112611b5657611b55611a3a565b5b8135611b66848260208601611aff565b91505092915050565b60008060008060808587031215611b8957611b8861178f565b5b6000611b9787828801611818565b945050602085013567ffffffffffffffff811115611bb857611bb7611794565b5b611bc487828801611b41565b9350506040611bd587828801611818565b9250506060611be6878288016117e2565b91505092959194509250565b600067ffffffffffffffff821115611c0d57611c0c611a44565b5b602082029050602081019050919050565b600080fd5b6000611c36611c3184611bf2565b611aa4565b90508083825260208201905060208402830185811115611c5957611c58611c1e565b5b835b81811015611c825780611c6e8882611818565b845260208401935050602081019050611c5b565b5050509392505050565b600082601f830112611ca157611ca0611a3a565b5b8135611cb1848260208601611c23565b91505092915050565b600067ffffffffffffffff821115611cd557611cd4611a44565b5b611cde826119ce565b9050602081019050919050565b6000611cfe611cf984611cba565b611aa4565b905082815260208101848484011115611d1a57611d19611a3f565b5b611d25848285611af0565b509392505050565b600082601f830112611d4257611d41611a3a565b5b8135611d52848260208601611ceb565b91505092915050565b600080600080600060a08688031215611d7757611d7661178f565b5b6000611d85888289016117e2565b9550506020611d96888289016117e2565b945050604086013567ffffffffffffffff811115611db757611db6611794565b5b611dc388828901611c8c565b935050606086013567ffffffffffffffff811115611de457611de3611794565b5b611df088828901611c8c565b925050608086013567ffffffffffffffff811115611e1157611e10611794565b5b611e1d88828901611d2d565b9150509295509295909350565b600067ffffffffffffffff821115611e4557611e44611a44565b5b602082029050602081019050919050565b6000611e69611e6484611e2a565b611aa4565b90508083825260208201905060208402830185811115611e8c57611e8b611c1e565b5b835b81811015611eb55780611ea188826117e2565b845260208401935050602081019050611e8e565b5050509392505050565b600082601f830112611ed457611ed3611a3a565b5b8135611ee4848260208601611e56565b91505092915050565b60008060408385031215611f0457611f0361178f565b5b600083013567ffffffffffffffff811115611f2257611f21611794565b5b611f2e85828601611ebf565b925050602083013567ffffffffffffffff811115611f4f57611f4e611794565b5b611f5b85828601611c8c565b9150509250929050565b600081519050919050565b600082825260208201905092915050565b6000819050602082019050919050565b611f9a816117f7565b82525050565b6000611fac8383611f91565b60208301905092915050565b6000602082019050919050565b6000611fd082611f65565b611fda8185611f70565b9350611fe583611f81565b8060005b83811015612016578151611ffd8882611fa0565b975061200883611fb8565b925050600181019050611fe9565b5085935050505092915050565b6000602082019050818103600083015261203d8184611fc5565b905092915050565b61204e8161191c565b811461205957600080fd5b50565b60008135905061206b81612045565b92915050565b600080604083850312156120885761208761178f565b5b6000612096858286016117e2565b92505060206120a78582860161205c565b9150509250929050565b600080604083850312156120c8576120c761178f565b5b60006120d6858286016117e2565b92505060206120e7858286016117e2565b9150509250929050565b600080600080600060a0868803121561210d5761210c61178f565b5b600061211b888289016117e2565b955050602061212c888289016117e2565b945050604061213d88828901611818565b935050606061214e88828901611818565b925050608086013567ffffffffffffffff81111561216f5761216e611794565b5b61217b88828901611d2d565b9150509295509295909350565b7f455243313135353a2061646472657373207a65726f206973206e6f742061207660008201527f616c6964206f776e657200000000000000000000000000000000000000000000602082015250565b60006121e4602a8361198a565b91506121ef82612188565b604082019050919050565b60006020820190508181036000830152612213816121d7565b9050919050565b7f4e487b7100000000000000000000000000000000000000000000000000000000600052602260045260246000fd5b6000600282049050600182168061226157607f821691505b602082108114156122755761227461221a565b5b50919050565b600081905092915050565b60008190508160005260206000209050919050565b600081546122a881612249565b6122b2818661227b565b945060018216600081146122cd57600181146122de57612311565b60ff19831686528186019350612311565b6122e785612286565b60005b83811015612309578154818901526001820191506020810190506122ea565b838801955050505b50505092915050565b60006123258261197f565b61232f818561227b565b935061233f81856020860161199b565b80840191505092915050565b6000612357828561229b565b9150612363828461231a565b91508190509392505050565b7f455243313135353a2063616c6c6572206973206e6f7420746f6b656e206f776e60008201527f6572206e6f7220617070726f7665640000000000000000000000000000000000602082015250565b60006123cb602f8361198a565b91506123d68261236f565b604082019050919050565b600060208201905081810360008301526123fa816123be565b9050919050565b7f455243313135353a206163636f756e747320616e6420696473206c656e67746860008201527f206d69736d617463680000000000000000000000000000000000000000000000602082015250565b600061245d60298361198a565b915061246882612401565b604082019050919050565b6000602082019050818103600083015261248c81612450565b9050919050565b7f4e487b7100000000000000000000000000000000000000000000000000000000600052603260045260246000fd5b7f4e487b7100000000000000000000000000000000000000000000000000000000600052601160045260246000fd5b60006124fc826117f7565b91507fffffffffffffffffffffffffffffffffffffffffffffffffffffffffffffffff82141561252f5761252e6124c2565b5b600182019050919050565b7f455243313135353a206d696e7420746f20746865207a65726f2061646472657360008201527f7300000000000000000000000000000000000000000000000000000000000000602082015250565b600061259660218361198a565b91506125a18261253a565b604082019050919050565b600060208201905081810360008301526125c581612589565b9050919050565b60006125d7826117f7565b91506125e2836117f7565b9250827fffffffffffffffffffffffffffffffffffffffffffffffffffffffffffffffff03821115612617576126166124c2565b5b828201905092915050565b6000604082019050612637600083018561186d565b612644602083018461186d565b9392505050565b7f455243313135353a2069647320616e6420616d6f756e7473206c656e6774682060008201527f6d69736d61746368000000000000000000000000000000000000000000000000602082015250565b60006126a760288361198a565b91506126b28261264b565b604082019050919050565b600060208201905081810360008301526126d68161269a565b9050919050565b7f455243313135353a207472616e7366657220746f20746865207a65726f20616460008201527f6472657373000000000000000000000000000000000000000000000000000000602082015250565b600061273960258361198a565b9150612744826126dd565b604082019050919050565b600060208201905081810360008301526127688161272c565b9050919050565b7f455243313135353a20696e73756666696369656e742062616c616e636520666f60008201527f72207472616e7366657200000000000000000000000000000000000000000000602082015250565b60006127cb602a8361198a565b91506127d68261276f565b604082019050919050565b600060208201905081810360008301526127fa816127be565b9050919050565b6000604082019050818103600083015261281b8185611fc5565b9050818103602083015261282f8184611fc5565b90509392505050565b7f455243313135353a2073657474696e6720617070726f76616c2073746174757360008201527f20666f722073656c660000000000000000000000000000000000000000000000602082015250565b600061289460298361198a565b915061289f82612838565b604082019050919050565b600060208201905081810360008301526128c381612887565b9050919050565b6128d3816117b9565b82525050565b600081519050919050565b600082825260208201905092915050565b6000612900826128d9565b61290a81856128e4565b935061291a81856020860161199b565b612923816119ce565b840191505092915050565b600060a08201905061294360008301886128ca565b61295060208301876128ca565b61295d604083018661186d565b61296a606083018561186d565b818103608083015261297c81846128f5565b90509695505050505050565b600081519050612997816118c3565b92915050565b6000602082840312156129b3576129b261178f565b5b60006129c184828501612988565b91505092915050565b60008160e01c9050919050565b600060033d11156129f65760046000803e6129f36000516129ca565b90505b90565b600060443d1015612a0957612a8c565b612a11611785565b60043d036004823e80513d602482011167ffffffffffffffff82111715612a39575050612a8c565b808201805167ffffffffffffffff811115612a575750505050612a8c565b80602083010160043d038501811115612a74575050505050612a8c565b612a8382602001850186611a73565b82955050505050505b90565b7f455243313135353a207472616e7366657220746f206e6f6e204552433131353560008201527f526563656976657220696d706c656d656e746572000000000000000000000000602082015250565b6000612aeb60348361198a565b9150612af682612a8f565b604082019050919050565b60006020820190508181036000830152612b1a81612ade565b9050919050565b7f455243313135353a204552433131353552656365697665722072656a6563746560008201527f6420746f6b656e73000000000000000000000000000000000000000000000000602082015250565b6000612b7d60288361198a565b9150612b8882612b21565b604082019050919050565b60006020820190508181036000830152612bac81612b70565b9050919050565b600060a082019050612bc860008301886128ca565b612bd560208301876128ca565b8181036040830152612be78186611fc5565b90508181036060830152612bfb8185611fc5565b90508181036080830152612c0f81846128f5565b9050969550505050505056fea2646970667358221220412dbd2900de48157a523d5d40c57557ac913cdda6a0cc4a7e66d9d332ec614d64736f6c63430008090033a26469706673582212202f64446c0bc8598ca35b199754f2c7f95b4a4f3086364a56d80e2ddaaed02e6e64736f6c63430008090033",
  "linkReferences": {},
  "deployedLinkReferences": {}
}