{
  "_format": "hh-sol-artifact-1",
  "contractName": "NftVault",
  "sourceName": "contracts/NftVault.sol",
  "abi": [
    {
      "inputs": [],
      "stateMutability": "nonpayable",
      "type": "constructor"
    },
    {
      "inputs": [],
      "name": "destroy",
      "outputs": [],
      "stateMutability": "nonpayable",
      "type": "function"
    },
    {
      "inputs": [],
      "name": "owner",
      "outputs": [
        {
          "internalType": "address",
          "name": "",
          "type": "address"
        }
      ],
      "stateMutability": "view",
      "type": "function"
    },
    {
      "inputs": [
        {
          "internalType": "address",
          "name": "receiver",
          "type": "address"
        },
        {
          "internalType": "address",
          "name": "_nftContractAddress",
          "type": "address"
        },
        {
          "internalType": "uint256",
          "name": "tokenId",
          "type": "uint256"
        }
      ],
      "name": "transferNFT",
      "outputs": [],
      "stateMutability": "nonpayable",
      "type": "function"
    },
    {
      "inputs": [
        {
          "internalType": "address",
          "name": "newOwner",
          "type": "address"
        }
      ],
      "name": "updateOwner",
      "outputs": [],
      "stateMutability": "nonpayable",
      "type": "function"
    },
    {
      "stateMutability": "payable",
      "type": "receive"
    }
  ],
  "bytecode": "0x608060405234801561001057600080fd5b50336000806101000a81548173ffffffffffffffffffffffffffffffffffffffff021916908373ffffffffffffffffffffffffffffffffffffffff1602179055506105e3806100606000396000f3fe6080604052600436106100435760003560e01c806369e9cae11461004f57806383197ef014610078578063880cdc311461008f5780638da5cb5b146100b85761004a565b3661004a57005b600080fd5b34801561005b57600080fd5b5061007660048036038101906100719190610440565b6100e3565b005b34801561008457600080fd5b5061008d6101eb565b005b34801561009b57600080fd5b506100b660048036038101906100b19190610493565b6102b2565b005b3480156100c457600080fd5b506100cd610383565b6040516100da91906104cf565b60405180910390f35b60008054906101000a900473ffffffffffffffffffffffffffffffffffffffff1673ffffffffffffffffffffffffffffffffffffffff163373ffffffffffffffffffffffffffffffffffffffff1614610171576040517f08c379a000000000000000000000000000000000000000000000000000000000815260040161016890610547565b60405180910390fd5b60008290508073ffffffffffffffffffffffffffffffffffffffff166323b872dd3086856040518463ffffffff1660e01b81526004016101b393929190610576565b600060405180830381600087803b1580156101cd57600080fd5b505af11580156101e1573d6000803e3d6000fd5b5050505050505050565b60008054906101000a900473ffffffffffffffffffffffffffffffffffffffff1673ffffffffffffffffffffffffffffffffffffffff163373ffffffffffffffffffffffffffffffffffffffff1614610279576040517f08c379a000000000000000000000000000000000000000000000000000000000815260040161027090610547565b60405180910390fd5b60008054906101000a900473ffffffffffffffffffffffffffffffffffffffff1673ffffffffffffffffffffffffffffffffffffffff16ff5b60008054906101000a900473ffffffffffffffffffffffffffffffffffffffff1673ffffffffffffffffffffffffffffffffffffffff163373ffffffffffffffffffffffffffffffffffffffff1614610340576040517f08c379a000000000000000000000000000000000000000000000000000000000815260040161033790610547565b60405180910390fd5b806000806101000a81548173ffffffffffffffffffffffffffffffffffffffff021916908373ffffffffffffffffffffffffffffffffffffffff16021790555050565b60008054906101000a900473ffffffffffffffffffffffffffffffffffffffff1681565b600080fd5b600073ffffffffffffffffffffffffffffffffffffffff82169050919050565b60006103d7826103ac565b9050919050565b6103e7816103cc565b81146103f257600080fd5b50565b600081359050610404816103de565b92915050565b6000819050919050565b61041d8161040a565b811461042857600080fd5b50565b60008135905061043a81610414565b92915050565b600080600060608486031215610459576104586103a7565b5b6000610467868287016103f5565b9350506020610478868287016103f5565b92505060406104898682870161042b565b9150509250925092565b6000602082840312156104a9576104a86103a7565b5b60006104b7848285016103f5565b91505092915050565b6104c9816103cc565b82525050565b60006020820190506104e460008301846104c0565b92915050565b600082825260208201905092915050565b7f4f6e6c79206f776e65722063616e206578656375746520697421212100000000600082015250565b6000610531601c836104ea565b915061053c826104fb565b602082019050919050565b6000602082019050818103600083015261056081610524565b9050919050565b6105708161040a565b82525050565b600060608201905061058b60008301866104c0565b61059860208301856104c0565b6105a56040830184610567565b94935050505056fea2646970667358221220368c3ec2d3a3cc245a2dfbc1823d7cbc24663c9cb9ad743e661de233d26c2fe364736f6c63430008090033",
  "linkReferences": {},
  "deployedLinkReferences": {}
}