{
  "_format": "hh-sol-artifact-1",
  "contractName": "FractionSale",
  "sourceName": "contracts/FractionSale.sol",
  "abi": [
    {
      "inputs": [],
      "stateMutability": "nonpayable",
      "type": "constructor"
    },
    {
      "inputs": [],
      "name": "destroy",
      "outputs": [],
      "stateMutability": "nonpayable",
      "type": "function"
    },
    {
      "inputs": [
        {
          "internalType": "address",
          "name": "",
          "type": "address"
        },
        {
          "internalType": "address",
          "name": "",
          "type": "address"
        },
        {
          "internalType": "uint256[]",
          "name": "",
          "type": "uint256[]"
        },
        {
          "internalType": "uint256[]",
          "name": "",
          "type": "uint256[]"
        },
        {
          "internalType": "bytes",
          "name": "",
          "type": "bytes"
        }
      ],
      "name": "onERC1155BatchReceived",
      "outputs": [
        {
          "internalType": "bytes4",
          "name": "",
          "type": "bytes4"
        }
      ],
      "stateMutability": "nonpayable",
      "type": "function"
    },
    {
      "inputs": [
        {
          "internalType": "address",
          "name": "",
          "type": "address"
        },
        {
          "internalType": "address",
          "name": "",
          "type": "address"
        },
        {
          "internalType": "uint256",
          "name": "",
          "type": "uint256"
        },
        {
          "internalType": "uint256",
          "name": "",
          "type": "uint256"
        },
        {
          "internalType": "bytes",
          "name": "",
          "type": "bytes"
        }
      ],
      "name": "onERC1155Received",
      "outputs": [
        {
          "internalType": "bytes4",
          "name": "",
          "type": "bytes4"
        }
      ],
      "stateMutability": "nonpayable",
      "type": "function"
    },
    {
      "inputs": [],
      "name": "owner",
      "outputs": [
        {
          "internalType": "address",
          "name": "",
          "type": "address"
        }
      ],
      "stateMutability": "view",
      "type": "function"
    },
    {
      "inputs": [
        {
          "internalType": "address",
          "name": "originalContract",
          "type": "address"
        },
        {
          "internalType": "uint256",
          "name": "tokenId",
          "type": "uint256"
        },
        {
          "internalType": "address",
          "name": "fractionContract",
          "type": "address"
        },
        {
          "internalType": "uint256",
          "name": "fractionCount",
          "type": "uint256"
        }
      ],
      "name": "storeFractionDetails",
      "outputs": [],
      "stateMutability": "nonpayable",
      "type": "function"
    },
    {
      "inputs": [
        {
          "internalType": "bytes4",
          "name": "interfaceId",
          "type": "bytes4"
        }
      ],
      "name": "supportsInterface",
      "outputs": [
        {
          "internalType": "bool",
          "name": "",
          "type": "bool"
        }
      ],
      "stateMutability": "view",
      "type": "function"
    },
    {
      "inputs": [
        {
          "internalType": "address",
          "name": "fractionContract",
          "type": "address"
        },
        {
          "internalType": "uint256",
          "name": "fractionTokenId",
          "type": "uint256"
        }
      ],
      "name": "transferToOwner",
      "outputs": [],
      "stateMutability": "nonpayable",
      "type": "function"
    }
  ],
  "bytecode": "0x608060405234801561001057600080fd5b50336000806101000a81548173ffffffffffffffffffffffffffffffffffffffff021916908373ffffffffffffffffffffffffffffffffffffffff16021790555061192a806100606000396000f3fe608060405234801561001057600080fd5b506004361061007d5760003560e01c80638568523a1161005b5780638568523a146100d85780638da5cb5b146100f4578063bc197c8114610112578063f23a6e61146101425761007d565b806301ffc9a71461008257806372177546146100b257806383197ef0146100ce575b600080fd5b61009c60048036038101906100979190610e47565b610172565b6040516100a99190610e8f565b60405180910390f35b6100cc60048036038101906100c79190610f3e565b6101ec565b005b6100d6610638565b005b6100f260048036038101906100ed9190610fa5565b6106ff565b005b6100fc61091c565b6040516101099190610ff4565b60405180910390f35b61012c6004803603810190610127919061121d565b610940565b60405161013991906112fb565b60405180910390f35b61015c60048036038101906101579190611316565b610955565b60405161016991906112fb565b60405180910390f35b60007f4e2312e0000000000000000000000000000000000000000000000000000000007bffffffffffffffffffffffffffffffffffffffffffffffffffffffff1916827bffffffffffffffffffffffffffffffffffffffffffffffffffffffff191614806101e557506101e48261096a565b5b9050919050565b81600560003373ffffffffffffffffffffffffffffffffffffffff1673ffffffffffffffffffffffffffffffffffffffff16815260200190815260200160002060006101000a81548173ffffffffffffffffffffffffffffffffffffffff021916908373ffffffffffffffffffffffffffffffffffffffff1602179055506001829080600181540180825580915050600190039060005260206000200160009091909190916101000a81548173ffffffffffffffffffffffffffffffffffffffff021916908373ffffffffffffffffffffffffffffffffffffffff16021790555081600260008673ffffffffffffffffffffffffffffffffffffffff1673ffffffffffffffffffffffffffffffffffffffff16815260200190815260200160002060006101000a81548173ffffffffffffffffffffffffffffffffffffffff021916908373ffffffffffffffffffffffffffffffffffffffff160217905550600060405180604001604052808673ffffffffffffffffffffffffffffffffffffffff168152602001858152509050600360008473ffffffffffffffffffffffffffffffffffffffff1673ffffffffffffffffffffffffffffffffffffffff16815260200190815260200160002081908060018154018082558091505060019003906000526020600020906002020160009091909190915060008201518160000160006101000a81548173ffffffffffffffffffffffffffffffffffffffff021916908373ffffffffffffffffffffffffffffffffffffffff160217905550602082015181600101555050606060005b838110156104765780828281518110610457576104566113ad565b5b602002602001018181525050808061046e9061140b565b91505061043b565b50600061049a8773ffffffffffffffffffffffffffffffffffffffff1660146109d4565b6040518060400160405280600181526020017f2d000000000000000000000000000000000000000000000000000000000000008152506104d988610c10565b6040516020016104eb939291906114ce565b60405160208183030381529060405290506040518060a001604052808873ffffffffffffffffffffffffffffffffffffffff1681526020018781526020018673ffffffffffffffffffffffffffffffffffffffff1681526020018581526020018381525060048260405161055f9190611546565b908152602001604051809103902060008201518160000160006101000a81548173ffffffffffffffffffffffffffffffffffffffff021916908373ffffffffffffffffffffffffffffffffffffffff1602179055506020820151816001015560408201518160020160006101000a81548173ffffffffffffffffffffffffffffffffffffffff021916908373ffffffffffffffffffffffffffffffffffffffff16021790555060608201518160030155608082015181600401908051906020019061062b929190610d71565b5090505050505050505050565b60008054906101000a900473ffffffffffffffffffffffffffffffffffffffff1673ffffffffffffffffffffffffffffffffffffffff163373ffffffffffffffffffffffffffffffffffffffff16146106c6576040517f08c379a00000000000000000000000000000000000000000000000000000000081526004016106bd906115ba565b60405180910390fd5b60008054906101000a900473ffffffffffffffffffffffffffffffffffffffff1673ffffffffffffffffffffffffffffffffffffffff16ff5b60008054906101000a900473ffffffffffffffffffffffffffffffffffffffff1673ffffffffffffffffffffffffffffffffffffffff163373ffffffffffffffffffffffffffffffffffffffff161461078d576040517f08c379a0000000000000000000000000000000000000000000000000000000008152600401610784906115ba565b60405180910390fd5b60008290503073ffffffffffffffffffffffffffffffffffffffff168173ffffffffffffffffffffffffffffffffffffffff16636352211e846040518263ffffffff1660e01b81526004016107e291906115e9565b60206040518083038186803b1580156107fa57600080fd5b505afa15801561080e573d6000803e3d6000fd5b505050506040513d601f19601f820116820180604052508101906108329190611619565b73ffffffffffffffffffffffffffffffffffffffff1614610888576040517f08c379a000000000000000000000000000000000000000000000000000000000815260040161087f90611692565b60405180910390fd5b8073ffffffffffffffffffffffffffffffffffffffff166323b872dd3060008054906101000a900473ffffffffffffffffffffffffffffffffffffffff16856040518463ffffffff1660e01b81526004016108e5939291906116b2565b600060405180830381600087803b1580156108ff57600080fd5b505af1158015610913573d6000803e3d6000fd5b50505050505050565b60008054906101000a900473ffffffffffffffffffffffffffffffffffffffff1681565b600063bc197c8160e01b905095945050505050565b600063f23a6e6160e01b905095945050505050565b60007f01ffc9a7000000000000000000000000000000000000000000000000000000007bffffffffffffffffffffffffffffffffffffffffffffffffffffffff1916827bffffffffffffffffffffffffffffffffffffffffffffffffffffffff1916149050919050565b6060600060028360026109e791906116e9565b6109f19190611743565b67ffffffffffffffff811115610a0a57610a09611025565b5b6040519080825280601f01601f191660200182016040528015610a3c5781602001600182028036833780820191505090505b5090507f300000000000000000000000000000000000000000000000000000000000000081600081518110610a7457610a736113ad565b5b60200101907effffffffffffffffffffffffffffffffffffffffffffffffffffffffffffff1916908160001a9053507f780000000000000000000000000000000000000000000000000000000000000081600181518110610ad857610ad76113ad565b5b60200101907effffffffffffffffffffffffffffffffffffffffffffffffffffffffffffff1916908160001a90535060006001846002610b1891906116e9565b610b229190611743565b90505b6001811115610bc2577f3031323334353637383961626364656600000000000000000000000000000000600f861660108110610b6457610b636113ad565b5b1a60f81b828281518110610b7b57610b7a6113ad565b5b60200101907effffffffffffffffffffffffffffffffffffffffffffffffffffffffffffff1916908160001a905350600485901c945080610bbb90611799565b9050610b25565b5060008414610c06576040517f08c379a0000000000000000000000000000000000000000000000000000000008152600401610bfd9061180f565b60405180910390fd5b8091505092915050565b60606000821415610c58576040518060400160405280600181526020017f30000000000000000000000000000000000000000000000000000000000000008152509050610d6c565b600082905060005b60008214610c8a578080610c739061140b565b915050600a82610c83919061185e565b9150610c60565b60008167ffffffffffffffff811115610ca657610ca5611025565b5b6040519080825280601f01601f191660200182016040528015610cd85781602001600182028036833780820191505090505b5090505b60008514610d6557600182610cf1919061188f565b9150600a85610d0091906118c3565b6030610d0c9190611743565b60f81b818381518110610d2257610d216113ad565b5b60200101907effffffffffffffffffffffffffffffffffffffffffffffffffffffffffffff1916908160001a905350600a85610d5e919061185e565b9450610cdc565b8093505050505b919050565b828054828255906000526020600020908101928215610dad579160200282015b82811115610dac578251825591602001919060010190610d91565b5b509050610dba9190610dbe565b5090565b5b80821115610dd7576000816000905550600101610dbf565b5090565b6000604051905090565b600080fd5b600080fd5b60007fffffffff0000000000000000000000000000000000000000000000000000000082169050919050565b610e2481610def565b8114610e2f57600080fd5b50565b600081359050610e4181610e1b565b92915050565b600060208284031215610e5d57610e5c610de5565b5b6000610e6b84828501610e32565b91505092915050565b60008115159050919050565b610e8981610e74565b82525050565b6000602082019050610ea46000830184610e80565b92915050565b600073ffffffffffffffffffffffffffffffffffffffff82169050919050565b6000610ed582610eaa565b9050919050565b610ee581610eca565b8114610ef057600080fd5b50565b600081359050610f0281610edc565b92915050565b6000819050919050565b610f1b81610f08565b8114610f2657600080fd5b50565b600081359050610f3881610f12565b92915050565b60008060008060808587031215610f5857610f57610de5565b5b6000610f6687828801610ef3565b9450506020610f7787828801610f29565b9350506040610f8887828801610ef3565b9250506060610f9987828801610f29565b91505092959194509250565b60008060408385031215610fbc57610fbb610de5565b5b6000610fca85828601610ef3565b9250506020610fdb85828601610f29565b9150509250929050565b610fee81610eca565b82525050565b60006020820190506110096000830184610fe5565b92915050565b600080fd5b6000601f19601f8301169050919050565b7f4e487b7100000000000000000000000000000000000000000000000000000000600052604160045260246000fd5b61105d82611014565b810181811067ffffffffffffffff8211171561107c5761107b611025565b5b80604052505050565b600061108f610ddb565b905061109b8282611054565b919050565b600067ffffffffffffffff8211156110bb576110ba611025565b5b602082029050602081019050919050565b600080fd5b60006110e46110df846110a0565b611085565b90508083825260208201905060208402830185811115611107576111066110cc565b5b835b81811015611130578061111c8882610f29565b845260208401935050602081019050611109565b5050509392505050565b600082601f83011261114f5761114e61100f565b5b813561115f8482602086016110d1565b91505092915050565b600080fd5b600067ffffffffffffffff82111561118857611187611025565b5b61119182611014565b9050602081019050919050565b82818337600083830152505050565b60006111c06111bb8461116d565b611085565b9050828152602081018484840111156111dc576111db611168565b5b6111e784828561119e565b509392505050565b600082601f8301126112045761120361100f565b5b81356112148482602086016111ad565b91505092915050565b600080600080600060a0868803121561123957611238610de5565b5b600061124788828901610ef3565b955050602061125888828901610ef3565b945050604086013567ffffffffffffffff81111561127957611278610dea565b5b6112858882890161113a565b935050606086013567ffffffffffffffff8111156112a6576112a5610dea565b5b6112b28882890161113a565b925050608086013567ffffffffffffffff8111156112d3576112d2610dea565b5b6112df888289016111ef565b9150509295509295909350565b6112f581610def565b82525050565b600060208201905061131060008301846112ec565b92915050565b600080600080600060a0868803121561133257611331610de5565b5b600061134088828901610ef3565b955050602061135188828901610ef3565b945050604061136288828901610f29565b935050606061137388828901610f29565b925050608086013567ffffffffffffffff81111561139457611393610dea565b5b6113a0888289016111ef565b9150509295509295909350565b7f4e487b7100000000000000000000000000000000000000000000000000000000600052603260045260246000fd5b7f4e487b7100000000000000000000000000000000000000000000000000000000600052601160045260246000fd5b600061141682610f08565b91507fffffffffffffffffffffffffffffffffffffffffffffffffffffffffffffffff821415611449576114486113dc565b5b600182019050919050565b600081519050919050565b600081905092915050565b60005b8381101561148857808201518184015260208101905061146d565b83811115611497576000848401525b50505050565b60006114a882611454565b6114b2818561145f565b93506114c281856020860161146a565b80840191505092915050565b60006114da828661149d565b91506114e6828561149d565b91506114f2828461149d565b9150819050949350505050565b600081519050919050565b600081905092915050565b6000611520826114ff565b61152a818561150a565b935061153a81856020860161146a565b80840191505092915050565b60006115528284611515565b915081905092915050565b600082825260208201905092915050565b7f4e6f7420617574686f72697a6564212121000000000000000000000000000000600082015250565b60006115a460118361155d565b91506115af8261156e565b602082019050919050565b600060208201905081810360008301526115d381611597565b9050919050565b6115e381610f08565b82525050565b60006020820190506115fe60008301846115da565b92915050565b60008151905061161381610edc565b92915050565b60006020828403121561162f5761162e610de5565b5b600061163d84828501611604565b91505092915050565b7f4e465420736f6c64206f757420696e2053616c65212100000000000000000000600082015250565b600061167c60168361155d565b915061168782611646565b602082019050919050565b600060208201905081810360008301526116ab8161166f565b9050919050565b60006060820190506116c76000830186610fe5565b6116d46020830185610fe5565b6116e160408301846115da565b949350505050565b60006116f482610f08565b91506116ff83610f08565b9250817fffffffffffffffffffffffffffffffffffffffffffffffffffffffffffffffff0483118215151615611738576117376113dc565b5b828202905092915050565b600061174e82610f08565b915061175983610f08565b9250827fffffffffffffffffffffffffffffffffffffffffffffffffffffffffffffffff0382111561178e5761178d6113dc565b5b828201905092915050565b60006117a482610f08565b915060008214156117b8576117b76113dc565b5b600182039050919050565b7f537472696e67733a20686578206c656e67746820696e73756666696369656e74600082015250565b60006117f960208361155d565b9150611804826117c3565b602082019050919050565b60006020820190508181036000830152611828816117ec565b9050919050565b7f4e487b7100000000000000000000000000000000000000000000000000000000600052601260045260246000fd5b600061186982610f08565b915061187483610f08565b9250826118845761188361182f565b5b828204905092915050565b600061189a82610f08565b91506118a583610f08565b9250828210156118b8576118b76113dc565b5b828203905092915050565b60006118ce82610f08565b91506118d983610f08565b9250826118e9576118e861182f565b5b82820690509291505056fea26469706673582212208b43a150ff1c6aeaee170b033d63731f94761f482f4578ab93b58afa9d3bab8b64736f6c63430008090033",
  "linkReferences": {},
  "deployedLinkReferences": {}
}