{
  "_format": "hh-sol-artifact-1",
  "contractName": "FractionSale",
  "sourceName": "contracts/FractionSale.sol",
  "abi": [
    {
      "inputs": [],
      "stateMutability": "nonpayable",
      "type": "constructor"
    },
    {
      "inputs": [],
      "name": "destroy",
      "outputs": [],
      "stateMutability": "nonpayable",
      "type": "function"
    },
    {
      "inputs": [],
      "name": "owner",
      "outputs": [
        {
          "internalType": "address",
          "name": "",
          "type": "address"
        }
      ],
      "stateMutability": "view",
      "type": "function"
    },
    {
      "inputs": [
        {
          "internalType": "address",
          "name": "originalContract",
          "type": "address"
        },
        {
          "internalType": "uint256",
          "name": "tokenId",
          "type": "uint256"
        },
        {
          "internalType": "address",
          "name": "fractionContract",
          "type": "address"
        },
        {
          "internalType": "uint256",
          "name": "fractionCount",
          "type": "uint256"
        }
      ],
      "name": "storeFractionDetails",
      "outputs": [],
      "stateMutability": "nonpayable",
      "type": "function"
    },
    {
      "inputs": [
        {
          "internalType": "address",
          "name": "fractionContract",
          "type": "address"
        },
        {
          "internalType": "uint256",
          "name": "fractionTokenId",
          "type": "uint256"
        }
      ],
      "name": "transferToOwner",
      "outputs": [],
      "stateMutability": "nonpayable",
      "type": "function"
    }
  ],
  "bytecode": "0x608060405234801561001057600080fd5b50336000806101000a81548173ffffffffffffffffffffffffffffffffffffffff021916908373ffffffffffffffffffffffffffffffffffffffff160217905550611322806100606000396000f3fe608060405234801561001057600080fd5b506004361061004c5760003560e01c8063721775461461005157806383197ef01461006d5780638568523a146100775780638da5cb5b14610093575b600080fd5b61006b60048036038101906100669190610ca5565b6100b1565b005b6100756104fd565b005b610091600480360381019061008c9190610d0c565b6105c4565b005b61009b6107e1565b6040516100a89190610d5b565b60405180910390f35b81600560003373ffffffffffffffffffffffffffffffffffffffff1673ffffffffffffffffffffffffffffffffffffffff16815260200190815260200160002060006101000a81548173ffffffffffffffffffffffffffffffffffffffff021916908373ffffffffffffffffffffffffffffffffffffffff1602179055506001829080600181540180825580915050600190039060005260206000200160009091909190916101000a81548173ffffffffffffffffffffffffffffffffffffffff021916908373ffffffffffffffffffffffffffffffffffffffff16021790555081600260008673ffffffffffffffffffffffffffffffffffffffff1673ffffffffffffffffffffffffffffffffffffffff16815260200190815260200160002060006101000a81548173ffffffffffffffffffffffffffffffffffffffff021916908373ffffffffffffffffffffffffffffffffffffffff160217905550600060405180604001604052808673ffffffffffffffffffffffffffffffffffffffff168152602001858152509050600360008473ffffffffffffffffffffffffffffffffffffffff1673ffffffffffffffffffffffffffffffffffffffff16815260200190815260200160002081908060018154018082558091505060019003906000526020600020906002020160009091909190915060008201518160000160006101000a81548173ffffffffffffffffffffffffffffffffffffffff021916908373ffffffffffffffffffffffffffffffffffffffff160217905550602082015181600101555050606060005b8381101561033b578082828151811061031c5761031b610d76565b5b602002602001018181525050808061033390610dd4565b915050610300565b50600061035f8773ffffffffffffffffffffffffffffffffffffffff166014610805565b6040518060400160405280600181526020017f2d0000000000000000000000000000000000000000000000000000000000000081525061039e88610a41565b6040516020016103b093929190610e97565b60405160208183030381529060405290506040518060a001604052808873ffffffffffffffffffffffffffffffffffffffff1681526020018781526020018673ffffffffffffffffffffffffffffffffffffffff168152602001858152602001838152506004826040516104249190610f0f565b908152602001604051809103902060008201518160000160006101000a81548173ffffffffffffffffffffffffffffffffffffffff021916908373ffffffffffffffffffffffffffffffffffffffff1602179055506020820151816001015560408201518160020160006101000a81548173ffffffffffffffffffffffffffffffffffffffff021916908373ffffffffffffffffffffffffffffffffffffffff1602179055506060820151816003015560808201518160040190805190602001906104f0929190610ba2565b5090505050505050505050565b60008054906101000a900473ffffffffffffffffffffffffffffffffffffffff1673ffffffffffffffffffffffffffffffffffffffff163373ffffffffffffffffffffffffffffffffffffffff161461058b576040517f08c379a000000000000000000000000000000000000000000000000000000000815260040161058290610f83565b60405180910390fd5b60008054906101000a900473ffffffffffffffffffffffffffffffffffffffff1673ffffffffffffffffffffffffffffffffffffffff16ff5b60008054906101000a900473ffffffffffffffffffffffffffffffffffffffff1673ffffffffffffffffffffffffffffffffffffffff163373ffffffffffffffffffffffffffffffffffffffff1614610652576040517f08c379a000000000000000000000000000000000000000000000000000000000815260040161064990610f83565b60405180910390fd5b60008290503073ffffffffffffffffffffffffffffffffffffffff168173ffffffffffffffffffffffffffffffffffffffff16636352211e846040518263ffffffff1660e01b81526004016106a79190610fb2565b60206040518083038186803b1580156106bf57600080fd5b505afa1580156106d3573d6000803e3d6000fd5b505050506040513d601f19601f820116820180604052508101906106f79190610fe2565b73ffffffffffffffffffffffffffffffffffffffff161461074d576040517f08c379a00000000000000000000000000000000000000000000000000000000081526004016107449061105b565b60405180910390fd5b8073ffffffffffffffffffffffffffffffffffffffff166323b872dd3060008054906101000a900473ffffffffffffffffffffffffffffffffffffffff16856040518463ffffffff1660e01b81526004016107aa9392919061107b565b600060405180830381600087803b1580156107c457600080fd5b505af11580156107d8573d6000803e3d6000fd5b50505050505050565b60008054906101000a900473ffffffffffffffffffffffffffffffffffffffff1681565b60606000600283600261081891906110b2565b610822919061110c565b67ffffffffffffffff81111561083b5761083a611162565b5b6040519080825280601f01601f19166020018201604052801561086d5781602001600182028036833780820191505090505b5090507f3000000000000000000000000000000000000000000000000000000000000000816000815181106108a5576108a4610d76565b5b60200101907effffffffffffffffffffffffffffffffffffffffffffffffffffffffffffff1916908160001a9053507f78000000000000000000000000000000000000000000000000000000000000008160018151811061090957610908610d76565b5b60200101907effffffffffffffffffffffffffffffffffffffffffffffffffffffffffffff1916908160001a9053506000600184600261094991906110b2565b610953919061110c565b90505b60018111156109f3577f3031323334353637383961626364656600000000000000000000000000000000600f86166010811061099557610994610d76565b5b1a60f81b8282815181106109ac576109ab610d76565b5b60200101907effffffffffffffffffffffffffffffffffffffffffffffffffffffffffffff1916908160001a905350600485901c9450806109ec90611191565b9050610956565b5060008414610a37576040517f08c379a0000000000000000000000000000000000000000000000000000000008152600401610a2e90611207565b60405180910390fd5b8091505092915050565b60606000821415610a89576040518060400160405280600181526020017f30000000000000000000000000000000000000000000000000000000000000008152509050610b9d565b600082905060005b60008214610abb578080610aa490610dd4565b915050600a82610ab49190611256565b9150610a91565b60008167ffffffffffffffff811115610ad757610ad6611162565b5b6040519080825280601f01601f191660200182016040528015610b095781602001600182028036833780820191505090505b5090505b60008514610b9657600182610b229190611287565b9150600a85610b3191906112bb565b6030610b3d919061110c565b60f81b818381518110610b5357610b52610d76565b5b60200101907effffffffffffffffffffffffffffffffffffffffffffffffffffffffffffff1916908160001a905350600a85610b8f9190611256565b9450610b0d565b8093505050505b919050565b828054828255906000526020600020908101928215610bde579160200282015b82811115610bdd578251825591602001919060010190610bc2565b5b509050610beb9190610bef565b5090565b5b80821115610c08576000816000905550600101610bf0565b5090565b600080fd5b600073ffffffffffffffffffffffffffffffffffffffff82169050919050565b6000610c3c82610c11565b9050919050565b610c4c81610c31565b8114610c5757600080fd5b50565b600081359050610c6981610c43565b92915050565b6000819050919050565b610c8281610c6f565b8114610c8d57600080fd5b50565b600081359050610c9f81610c79565b92915050565b60008060008060808587031215610cbf57610cbe610c0c565b5b6000610ccd87828801610c5a565b9450506020610cde87828801610c90565b9350506040610cef87828801610c5a565b9250506060610d0087828801610c90565b91505092959194509250565b60008060408385031215610d2357610d22610c0c565b5b6000610d3185828601610c5a565b9250506020610d4285828601610c90565b9150509250929050565b610d5581610c31565b82525050565b6000602082019050610d706000830184610d4c565b92915050565b7f4e487b7100000000000000000000000000000000000000000000000000000000600052603260045260246000fd5b7f4e487b7100000000000000000000000000000000000000000000000000000000600052601160045260246000fd5b6000610ddf82610c6f565b91507fffffffffffffffffffffffffffffffffffffffffffffffffffffffffffffffff821415610e1257610e11610da5565b5b600182019050919050565b600081519050919050565b600081905092915050565b60005b83811015610e51578082015181840152602081019050610e36565b83811115610e60576000848401525b50505050565b6000610e7182610e1d565b610e7b8185610e28565b9350610e8b818560208601610e33565b80840191505092915050565b6000610ea38286610e66565b9150610eaf8285610e66565b9150610ebb8284610e66565b9150819050949350505050565b600081519050919050565b600081905092915050565b6000610ee982610ec8565b610ef38185610ed3565b9350610f03818560208601610e33565b80840191505092915050565b6000610f1b8284610ede565b915081905092915050565b600082825260208201905092915050565b7f4e6f7420617574686f72697a6564212121000000000000000000000000000000600082015250565b6000610f6d601183610f26565b9150610f7882610f37565b602082019050919050565b60006020820190508181036000830152610f9c81610f60565b9050919050565b610fac81610c6f565b82525050565b6000602082019050610fc76000830184610fa3565b92915050565b600081519050610fdc81610c43565b92915050565b600060208284031215610ff857610ff7610c0c565b5b600061100684828501610fcd565b91505092915050565b7f4e465420736f6c64206f757420696e2053616c65212100000000000000000000600082015250565b6000611045601683610f26565b91506110508261100f565b602082019050919050565b6000602082019050818103600083015261107481611038565b9050919050565b60006060820190506110906000830186610d4c565b61109d6020830185610d4c565b6110aa6040830184610fa3565b949350505050565b60006110bd82610c6f565b91506110c883610c6f565b9250817fffffffffffffffffffffffffffffffffffffffffffffffffffffffffffffffff048311821515161561110157611100610da5565b5b828202905092915050565b600061111782610c6f565b915061112283610c6f565b9250827fffffffffffffffffffffffffffffffffffffffffffffffffffffffffffffffff0382111561115757611156610da5565b5b828201905092915050565b7f4e487b7100000000000000000000000000000000000000000000000000000000600052604160045260246000fd5b600061119c82610c6f565b915060008214156111b0576111af610da5565b5b600182039050919050565b7f537472696e67733a20686578206c656e67746820696e73756666696369656e74600082015250565b60006111f1602083610f26565b91506111fc826111bb565b602082019050919050565b60006020820190508181036000830152611220816111e4565b9050919050565b7f4e487b7100000000000000000000000000000000000000000000000000000000600052601260045260246000fd5b600061126182610c6f565b915061126c83610c6f565b92508261127c5761127b611227565b5b828204905092915050565b600061129282610c6f565b915061129d83610c6f565b9250828210156112b0576112af610da5565b5b828203905092915050565b60006112c682610c6f565b91506112d183610c6f565b9250826112e1576112e0611227565b5b82820690509291505056fea2646970667358221220e56047ddd69e7078c16cb0398f94248fe00707e9c3defeca778e78bddfb32acf64736f6c63430008090033",
  "linkReferences": {},
  "deployedLinkReferences": {}
}